{
    "_format": "hh-sol-artifact-1",
    "contractName": "Collection",
    "sourceName": "contracts/collection.sol",
    "abi": [
        {
            "inputs": [],
            "stateMutability": "nonpayable",
            "type": "constructor"
        },
        {
            "anonymous": false,
            "inputs": [
                {
                    "indexed": true,
                    "internalType": "address",
                    "name": "owner",
                    "type": "address"
                },
                {
                    "indexed": true,
                    "internalType": "address",
                    "name": "approved",
                    "type": "address"
                },
                {
                    "indexed": true,
                    "internalType": "uint256",
                    "name": "tokenId",
                    "type": "uint256"
                }
            ],
            "name": "Approval",
            "type": "event"
        },
        {
            "anonymous": false,
            "inputs": [
                {
                    "indexed": true,
                    "internalType": "address",
                    "name": "owner",
                    "type": "address"
                },
                {
                    "indexed": true,
                    "internalType": "address",
                    "name": "operator",
                    "type": "address"
                },
                {
                    "indexed": false,
                    "internalType": "bool",
                    "name": "approved",
                    "type": "bool"
                }
            ],
            "name": "ApprovalForAll",
            "type": "event"
        },
        {
            "anonymous": false,
            "inputs": [
                {
                    "indexed": true,
                    "internalType": "address",
                    "name": "previousOwner",
                    "type": "address"
                },
                {
                    "indexed": true,
                    "internalType": "address",
                    "name": "newOwner",
                    "type": "address"
                }
            ],
            "name": "OwnershipTransferred",
            "type": "event"
        },
        {
            "anonymous": false,
            "inputs": [
                {
                    "indexed": true,
                    "internalType": "address",
                    "name": "from",
                    "type": "address"
                },
                {
                    "indexed": true,
                    "internalType": "address",
                    "name": "to",
                    "type": "address"
                },
                {
                    "indexed": true,
                    "internalType": "uint256",
                    "name": "tokenId",
                    "type": "uint256"
                }
            ],
            "name": "Transfer",
            "type": "event"
        },
        {
            "inputs": [],
            "name": "LIMIT_PER_ADDRESS",
            "outputs": [
                {
                    "internalType": "uint256",
                    "name": "",
                    "type": "uint256"
                }
            ],
            "stateMutability": "view",
            "type": "function"
        },
        {
            "inputs": [],
            "name": "MAX_SUPPLY",
            "outputs": [
                {
                    "internalType": "uint256",
                    "name": "",
                    "type": "uint256"
                }
            ],
            "stateMutability": "view",
            "type": "function"
        },
        {
            "inputs": [],
            "name": "PRICE_PER_TOKEN",
            "outputs": [
                {
                    "internalType": "uint256",
                    "name": "",
                    "type": "uint256"
                }
            ],
            "stateMutability": "view",
            "type": "function"
        },
        {
            "inputs": [
                {
                    "internalType": "address",
                    "name": "to",
                    "type": "address"
                },
                {
                    "internalType": "uint256",
                    "name": "tokenId",
                    "type": "uint256"
                }
            ],
            "name": "approve",
            "outputs": [],
            "stateMutability": "nonpayable",
            "type": "function"
        },
        {
            "inputs": [
                {
                    "internalType": "address",
                    "name": "owner",
                    "type": "address"
                }
            ],
            "name": "balanceOf",
            "outputs": [
                {
                    "internalType": "uint256",
                    "name": "",
                    "type": "uint256"
                }
            ],
            "stateMutability": "view",
            "type": "function"
        },
        {
            "inputs": [
                {
                    "internalType": "uint256",
                    "name": "tokenId",
                    "type": "uint256"
                }
            ],
            "name": "getApproved",
            "outputs": [
                {
                    "internalType": "address",
                    "name": "",
                    "type": "address"
                }
            ],
            "stateMutability": "view",
            "type": "function"
        },
        {
            "inputs": [
                {
                    "internalType": "address",
                    "name": "owner",
                    "type": "address"
                },
                {
                    "internalType": "address",
                    "name": "operator",
                    "type": "address"
                }
            ],
            "name": "isApprovedForAll",
            "outputs": [
                {
                    "internalType": "bool",
                    "name": "",
                    "type": "bool"
                }
            ],
            "stateMutability": "view",
            "type": "function"
        },
        {
            "inputs": [
                {
                    "internalType": "string",
                    "name": "tokenURI",
                    "type": "string"
                }
            ],
            "name": "mintNFT",
            "outputs": [
                {
                    "internalType": "uint256",
                    "name": "",
                    "type": "uint256"
                }
            ],
            "stateMutability": "payable",
            "type": "function"
        },
        {
            "inputs": [],
            "name": "name",
            "outputs": [
                {
                    "internalType": "string",
                    "name": "",
                    "type": "string"
                }
            ],
            "stateMutability": "view",
            "type": "function"
        },
        {
            "inputs": [],
            "name": "owner",
            "outputs": [
                {
                    "internalType": "address",
                    "name": "",
                    "type": "address"
                }
            ],
            "stateMutability": "view",
            "type": "function"
        },
        {
            "inputs": [
                {
                    "internalType": "uint256",
                    "name": "tokenId",
                    "type": "uint256"
                }
            ],
            "name": "ownerOf",
            "outputs": [
                {
                    "internalType": "address",
                    "name": "",
                    "type": "address"
                }
            ],
            "stateMutability": "view",
            "type": "function"
        },
        {
            "inputs": [],
            "name": "renounceOwnership",
            "outputs": [],
            "stateMutability": "nonpayable",
            "type": "function"
        },
        {
            "inputs": [
                {
                    "internalType": "address",
                    "name": "from",
                    "type": "address"
                },
                {
                    "internalType": "address",
                    "name": "to",
                    "type": "address"
                },
                {
                    "internalType": "uint256",
                    "name": "tokenId",
                    "type": "uint256"
                }
            ],
            "name": "safeTransferFrom",
            "outputs": [],
            "stateMutability": "nonpayable",
            "type": "function"
        },
        {
            "inputs": [
                {
                    "internalType": "address",
                    "name": "from",
                    "type": "address"
                },
                {
                    "internalType": "address",
                    "name": "to",
                    "type": "address"
                },
                {
                    "internalType": "uint256",
                    "name": "tokenId",
                    "type": "uint256"
                },
                {
                    "internalType": "bytes",
                    "name": "data",
                    "type": "bytes"
                }
            ],
            "name": "safeTransferFrom",
            "outputs": [],
            "stateMutability": "nonpayable",
            "type": "function"
        },
        {
            "inputs": [
                {
                    "internalType": "address",
                    "name": "operator",
                    "type": "address"
                },
                {
                    "internalType": "bool",
                    "name": "approved",
                    "type": "bool"
                }
            ],
            "name": "setApprovalForAll",
            "outputs": [],
            "stateMutability": "nonpayable",
            "type": "function"
        },
        {
            "inputs": [
                {
                    "internalType": "uint256",
                    "name": "limit",
                    "type": "uint256"
                }
            ],
            "name": "setLimit",
            "outputs": [],
            "stateMutability": "nonpayable",
            "type": "function"
        },
        {
            "inputs": [
                {
                    "internalType": "uint256",
                    "name": "max_supply",
                    "type": "uint256"
                }
            ],
            "name": "setMaxSupply",
            "outputs": [],
            "stateMutability": "nonpayable",
            "type": "function"
        },
        {
            "inputs": [
                {
                    "internalType": "uint256",
                    "name": "price",
                    "type": "uint256"
                }
            ],
            "name": "setPrice",
            "outputs": [],
            "stateMutability": "nonpayable",
            "type": "function"
        },
        {
            "inputs": [
                {
                    "internalType": "bytes4",
                    "name": "interfaceId",
                    "type": "bytes4"
                }
            ],
            "name": "supportsInterface",
            "outputs": [
                {
                    "internalType": "bool",
                    "name": "",
                    "type": "bool"
                }
            ],
            "stateMutability": "view",
            "type": "function"
        },
        {
            "inputs": [],
            "name": "symbol",
            "outputs": [
                {
                    "internalType": "string",
                    "name": "",
                    "type": "string"
                }
            ],
            "stateMutability": "view",
            "type": "function"
        },
        {
            "inputs": [
                {
                    "internalType": "uint256",
                    "name": "tokenId",
                    "type": "uint256"
                }
            ],
            "name": "tokenURI",
            "outputs": [
                {
                    "internalType": "string",
                    "name": "",
                    "type": "string"
                }
            ],
            "stateMutability": "view",
            "type": "function"
        },
        {
            "inputs": [
                {
                    "internalType": "address",
                    "name": "from",
                    "type": "address"
                },
                {
                    "internalType": "address",
                    "name": "to",
                    "type": "address"
                },
                {
                    "internalType": "uint256",
                    "name": "tokenId",
                    "type": "uint256"
                }
            ],
            "name": "transferFrom",
            "outputs": [],
            "stateMutability": "nonpayable",
            "type": "function"
        },
        {
            "inputs": [
                {
                    "internalType": "address",
                    "name": "newOwner",
                    "type": "address"
                }
            ],
            "name": "transferOwnership",
            "outputs": [],
            "stateMutability": "nonpayable",
            "type": "function"
        },
        {
            "inputs": [],
            "name": "withdrawMoney",
            "outputs": [],
            "stateMutability": "nonpayable",
            "type": "function"
        }
    ],
    "bytecode": "0x6080604052662386f26fc10000600c556002600d556005600e553480156200002657600080fd5b506040518060400160405280600a81526020017f436f6c6c656374696f6e000000000000000000000000000000000000000000008152506040518060400160405280600381526020017f4e465400000000000000000000000000000000000000000000000000000000008152508160009080519060200190620000ab929190620001bb565b508060019080519060200190620000c4929190620001bb565b505050620000e7620000db620000ed60201b60201c565b620000f560201b60201c565b620002d0565b600033905090565b6000600760009054906101000a900473ffffffffffffffffffffffffffffffffffffffff16905081600760006101000a81548173ffffffffffffffffffffffffffffffffffffffff021916908373ffffffffffffffffffffffffffffffffffffffff1602179055508173ffffffffffffffffffffffffffffffffffffffff168173ffffffffffffffffffffffffffffffffffffffff167f8be0079c531659141344cd1fd0a4f28419497f9722a3daafe3b4186f6b6457e060405160405180910390a35050565b828054620001c9906200026b565b90600052602060002090601f016020900481019282620001ed576000855562000239565b82601f106200020857805160ff191683800117855562000239565b8280016001018555821562000239579182015b82811115620002385782518255916020019190600101906200021b565b5b5090506200024891906200024c565b5090565b5b80821115620002675760008160009055506001016200024d565b5090565b600060028204905060018216806200028457607f821691505b602082108114156200029b576200029a620002a1565b5b50919050565b7f4e487b7100000000000000000000000000000000000000000000000000000000600052602260045260246000fd5b61330780620002e06000396000f3fe60806040526004361061014b5760003560e01c8063715018a6116100b6578063ac4460021161006f578063ac4460021461047c578063b88d4fde14610493578063c87b56dd146104bc578063e985e9c5146104f9578063f2fde38b14610536578063fb37e8831461055f5761014b565b8063715018a614610392578063833b9499146103a95780638da5cb5b146103d457806391b7f5ed146103ff57806395d89b4114610428578063a22cb465146104535761014b565b806332cb6b0c1161010857806332cb6b0c14610270578063417bac1a1461029b57806342842e0e146102c65780636352211e146102ef5780636f8b44b01461032c57806370a08231146103555761014b565b806301ffc9a71461015057806306fdde031461018d578063081812fc146101b8578063095ea7b3146101f557806323b872dd1461021e57806327ea6f2b14610247575b600080fd5b34801561015c57600080fd5b50610177600480360381019061017291906122d8565b61058f565b604051610184919061277c565b60405180910390f35b34801561019957600080fd5b506101a2610671565b6040516101af9190612797565b60405180910390f35b3480156101c457600080fd5b506101df60048036038101906101da919061236b565b610703565b6040516101ec9190612715565b60405180910390f35b34801561020157600080fd5b5061021c6004803603810190610217919061229c565b610749565b005b34801561022a57600080fd5b5061024560048036038101906102409190612196565b610861565b005b34801561025357600080fd5b5061026e6004803603810190610269919061236b565b6108c1565b005b34801561027c57600080fd5b506102856108d3565b60405161029291906129f9565b60405180910390f35b3480156102a757600080fd5b506102b06108d9565b6040516102bd91906129f9565b60405180910390f35b3480156102d257600080fd5b506102ed60048036038101906102e89190612196565b6108df565b005b3480156102fb57600080fd5b506103166004803603810190610311919061236b565b6108ff565b6040516103239190612715565b60405180910390f35b34801561033857600080fd5b50610353600480360381019061034e919061236b565b6109b1565b005b34801561036157600080fd5b5061037c60048036038101906103779190612131565b6109c3565b60405161038991906129f9565b60405180910390f35b34801561039e57600080fd5b506103a7610a7b565b005b3480156103b557600080fd5b506103be610a8f565b6040516103cb91906129f9565b60405180910390f35b3480156103e057600080fd5b506103e9610a95565b6040516103f69190612715565b60405180910390f35b34801561040b57600080fd5b506104266004803603810190610421919061236b565b610abf565b005b34801561043457600080fd5b5061043d610ad1565b60405161044a9190612797565b60405180910390f35b34801561045f57600080fd5b5061047a60048036038101906104759190612260565b610b63565b005b34801561048857600080fd5b50610491610b79565b005b34801561049f57600080fd5b506104ba60048036038101906104b591906121e5565b610bd0565b005b3480156104c857600080fd5b506104e360048036038101906104de919061236b565b610c32565b6040516104f09190612797565b60405180910390f35b34801561050557600080fd5b50610520600480360381019061051b919061215a565b610d45565b60405161052d919061277c565b60405180910390f35b34801561054257600080fd5b5061055d60048036038101906105589190612131565b610dd9565b005b6105796004803603810190610574919061232a565b610e5d565b60405161058691906129f9565b60405180910390f35b60007f80ac58cd000000000000000000000000000000000000000000000000000000007bffffffffffffffffffffffffffffffffffffffffffffffffffffffff1916827bffffffffffffffffffffffffffffffffffffffffffffffffffffffff1916148061065a57507f5b5e139f000000000000000000000000000000000000000000000000000000007bffffffffffffffffffffffffffffffffffffffffffffffffffffffff1916827bffffffffffffffffffffffffffffffffffffffffffffffffffffffff1916145b8061066a575061066982611108565b5b9050919050565b60606000805461068090612c93565b80601f01602080910402602001604051908101604052809291908181526020018280546106ac90612c93565b80156106f95780601f106106ce576101008083540402835291602001916106f9565b820191906000526020600020905b8154815290600101906020018083116106dc57829003601f168201915b5050505050905090565b600061070e82611172565b6004600083815260200190815260200160002060009054906101000a900473ffffffffffffffffffffffffffffffffffffffff169050919050565b6000610754826108ff565b90508073ffffffffffffffffffffffffffffffffffffffff168373ffffffffffffffffffffffffffffffffffffffff1614156107c5576040517f08c379a00000000000000000000000000000000000000000000000000000000081526004016107bc90612999565b60405180910390fd5b8073ffffffffffffffffffffffffffffffffffffffff166107e46111bd565b73ffffffffffffffffffffffffffffffffffffffff16148061081357506108128161080d6111bd565b610d45565b5b610852576040517f08c379a0000000000000000000000000000000000000000000000000000000008152600401610849906128f9565b60405180910390fd5b61085c83836111c5565b505050565b61087261086c6111bd565b8261127e565b6108b1576040517f08c379a00000000000000000000000000000000000000000000000000000000081526004016108a8906129d9565b60405180910390fd5b6108bc838383611313565b505050565b6108c961157a565b80600d8190555050565b600e5481565b600d5481565b6108fa83838360405180602001604052806000815250610bd0565b505050565b6000806002600084815260200190815260200160002060009054906101000a900473ffffffffffffffffffffffffffffffffffffffff169050600073ffffffffffffffffffffffffffffffffffffffff168173ffffffffffffffffffffffffffffffffffffffff1614156109a8576040517f08c379a000000000000000000000000000000000000000000000000000000000815260040161099f90612979565b60405180910390fd5b80915050919050565b6109b961157a565b80600e8190555050565b60008073ffffffffffffffffffffffffffffffffffffffff168273ffffffffffffffffffffffffffffffffffffffff161415610a34576040517f08c379a0000000000000000000000000000000000000000000000000000000008152600401610a2b90612899565b60405180910390fd5b600360008373ffffffffffffffffffffffffffffffffffffffff1673ffffffffffffffffffffffffffffffffffffffff168152602001908152602001600020549050919050565b610a8361157a565b610a8d60006115f8565b565b600c5481565b6000600760009054906101000a900473ffffffffffffffffffffffffffffffffffffffff16905090565b610ac761157a565b80600c8190555050565b606060018054610ae090612c93565b80601f0160208091040260200160405190810160405280929190818152602001828054610b0c90612c93565b8015610b595780601f10610b2e57610100808354040283529160200191610b59565b820191906000526020600020905b815481529060010190602001808311610b3c57829003601f168201915b5050505050905090565b610b75610b6e6111bd565b83836116be565b5050565b610b8161157a565b60003390508073ffffffffffffffffffffffffffffffffffffffff166108fc479081150290604051600060405180830381858888f19350505050158015610bcc573d6000803e3d6000fd5b5050565b610be1610bdb6111bd565b8361127e565b610c20576040517f08c379a0000000000000000000000000000000000000000000000000000000008152600401610c17906129d9565b60405180910390fd5b610c2c8484848461182b565b50505050565b6060610c3d82611172565b6000600660008481526020019081526020016000208054610c5d90612c93565b80601f0160208091040260200160405190810160405280929190818152602001828054610c8990612c93565b8015610cd65780601f10610cab57610100808354040283529160200191610cd6565b820191906000526020600020905b815481529060010190602001808311610cb957829003601f168201915b505050505090506000610ce7611887565b9050600081511415610cfd578192505050610d40565b600082511115610d32578082604051602001610d1a9291906126f1565b60405160208183030381529060405292505050610d40565b610d3b8461189e565b925050505b919050565b6000600560008473ffffffffffffffffffffffffffffffffffffffff1673ffffffffffffffffffffffffffffffffffffffff16815260200190815260200160002060008373ffffffffffffffffffffffffffffffffffffffff1673ffffffffffffffffffffffffffffffffffffffff16815260200190815260200160002060009054906101000a900460ff16905092915050565b610de161157a565b600073ffffffffffffffffffffffffffffffffffffffff168173ffffffffffffffffffffffffffffffffffffffff161415610e51576040517f08c379a0000000000000000000000000000000000000000000000000000000008152600401610e48906127d9565b60405180910390fd5b610e5a816115f8565b50565b600034600c541115610ea4576040517f08c379a0000000000000000000000000000000000000000000000000000000008152600401610e9b906128d9565b60405180910390fd5b600d54600a60003373ffffffffffffffffffffffffffffffffffffffff1673ffffffffffffffffffffffffffffffffffffffff16815260200190815260200160002060009054906101000a900460ff1660ff1610610f37576040517f08c379a0000000000000000000000000000000000000000000000000000000008152600401610f2e906129b9565b60405180910390fd5b600e546001610f466009611906565b610f509190612ade565b1115610f91576040517f08c379a0000000000000000000000000000000000000000000000000000000008152600401610f8890612959565b60405180910390fd5b6000600b83604051610fa391906126da565b908152602001604051809103902060009054906101000a900460ff1660ff1614611002576040517f08c379a0000000000000000000000000000000000000000000000000000000008152600401610ff990612879565b60405180910390fd5b6001600b8360405161101491906126da565b908152602001604051809103902060008282829054906101000a900460ff1661103d9190612b34565b92506101000a81548160ff021916908360ff1602179055506001600a60003373ffffffffffffffffffffffffffffffffffffffff1673ffffffffffffffffffffffffffffffffffffffff16815260200190815260200160002060008282829054906101000a900460ff166110b19190612b34565b92506101000a81548160ff021916908360ff1602179055506110d36008611914565b6110dd6009611914565b60006110e96008611906565b90506110f5338261192a565b6110ff8184611b04565b80915050919050565b60007f01ffc9a7000000000000000000000000000000000000000000000000000000007bffffffffffffffffffffffffffffffffffffffffffffffffffffffff1916827bffffffffffffffffffffffffffffffffffffffffffffffffffffffff1916149050919050565b61117b81611b78565b6111ba576040517f08c379a00000000000000000000000000000000000000000000000000000000081526004016111b190612979565b60405180910390fd5b50565b600033905090565b816004600083815260200190815260200160002060006101000a81548173ffffffffffffffffffffffffffffffffffffffff021916908373ffffffffffffffffffffffffffffffffffffffff160217905550808273ffffffffffffffffffffffffffffffffffffffff16611238836108ff565b73ffffffffffffffffffffffffffffffffffffffff167f8c5be1e5ebec7d5bd14f71427d1e84f3dd0314c0f7b2291e5b200ac8c7c3b92560405160405180910390a45050565b60008061128a836108ff565b90508073ffffffffffffffffffffffffffffffffffffffff168473ffffffffffffffffffffffffffffffffffffffff1614806112cc57506112cb8185610d45565b5b8061130a57508373ffffffffffffffffffffffffffffffffffffffff166112f284610703565b73ffffffffffffffffffffffffffffffffffffffff16145b91505092915050565b8273ffffffffffffffffffffffffffffffffffffffff16611333826108ff565b73ffffffffffffffffffffffffffffffffffffffff1614611389576040517f08c379a0000000000000000000000000000000000000000000000000000000008152600401611380906127f9565b60405180910390fd5b600073ffffffffffffffffffffffffffffffffffffffff168273ffffffffffffffffffffffffffffffffffffffff1614156113f9576040517f08c379a00000000000000000000000000000000000000000000000000000000081526004016113f090612839565b60405180910390fd5b611404838383611be4565b61140f6000826111c5565b6001600360008573ffffffffffffffffffffffffffffffffffffffff1673ffffffffffffffffffffffffffffffffffffffff168152602001908152602001600020600082825461145f9190612b9c565b925050819055506001600360008473ffffffffffffffffffffffffffffffffffffffff1673ffffffffffffffffffffffffffffffffffffffff16815260200190815260200160002060008282546114b69190612ade565b92505081905550816002600083815260200190815260200160002060006101000a81548173ffffffffffffffffffffffffffffffffffffffff021916908373ffffffffffffffffffffffffffffffffffffffff160217905550808273ffffffffffffffffffffffffffffffffffffffff168473ffffffffffffffffffffffffffffffffffffffff167fddf252ad1be2c89b69c2b068fc378daa952ba7f163c4a11628f55a4df523b3ef60405160405180910390a4611575838383611be9565b505050565b6115826111bd565b73ffffffffffffffffffffffffffffffffffffffff166115a0610a95565b73ffffffffffffffffffffffffffffffffffffffff16146115f6576040517f08c379a00000000000000000000000000000000000000000000000000000000081526004016115ed90612939565b60405180910390fd5b565b6000600760009054906101000a900473ffffffffffffffffffffffffffffffffffffffff16905081600760006101000a81548173ffffffffffffffffffffffffffffffffffffffff021916908373ffffffffffffffffffffffffffffffffffffffff1602179055508173ffffffffffffffffffffffffffffffffffffffff168173ffffffffffffffffffffffffffffffffffffffff167f8be0079c531659141344cd1fd0a4f28419497f9722a3daafe3b4186f6b6457e060405160405180910390a35050565b8173ffffffffffffffffffffffffffffffffffffffff168373ffffffffffffffffffffffffffffffffffffffff16141561172d576040517f08c379a000000000000000000000000000000000000000000000000000000000815260040161172490612859565b60405180910390fd5b80600560008573ffffffffffffffffffffffffffffffffffffffff1673ffffffffffffffffffffffffffffffffffffffff16815260200190815260200160002060008473ffffffffffffffffffffffffffffffffffffffff1673ffffffffffffffffffffffffffffffffffffffff16815260200190815260200160002060006101000a81548160ff0219169083151502179055508173ffffffffffffffffffffffffffffffffffffffff168373ffffffffffffffffffffffffffffffffffffffff167f17307eab39ab6107e8899845ad3d59bd9653f200f220920489ca2b5937696c318360405161181e919061277c565b60405180910390a3505050565b611836848484611313565b61184284848484611bee565b611881576040517f08c379a0000000000000000000000000000000000000000000000000000000008152600401611878906127b9565b60405180910390fd5b50505050565b606060405180602001604052806000815250905090565b60606118a982611172565b60006118b3611887565b905060008151116118d357604051806020016040528060008152506118fe565b806118dd84611d85565b6040516020016118ee9291906126f1565b6040516020818303038152906040525b915050919050565b600081600001549050919050565b6001816000016000828254019250508190555050565b600073ffffffffffffffffffffffffffffffffffffffff168273ffffffffffffffffffffffffffffffffffffffff16141561199a576040517f08c379a000000000000000000000000000000000000000000000000000000000815260040161199190612919565b60405180910390fd5b6119a381611b78565b156119e3576040517f08c379a00000000000000000000000000000000000000000000000000000000081526004016119da90612819565b60405180910390fd5b6119ef60008383611be4565b6001600360008473ffffffffffffffffffffffffffffffffffffffff1673ffffffffffffffffffffffffffffffffffffffff1681526020019081526020016000206000828254611a3f9190612ade565b92505081905550816002600083815260200190815260200160002060006101000a81548173ffffffffffffffffffffffffffffffffffffffff021916908373ffffffffffffffffffffffffffffffffffffffff160217905550808273ffffffffffffffffffffffffffffffffffffffff16600073ffffffffffffffffffffffffffffffffffffffff167fddf252ad1be2c89b69c2b068fc378daa952ba7f163c4a11628f55a4df523b3ef60405160405180910390a4611b0060008383611be9565b5050565b611b0d82611b78565b611b4c576040517f08c379a0000000000000000000000000000000000000000000000000000000008152600401611b43906128b9565b60405180910390fd5b80600660008481526020019081526020016000209080519060200190611b73929190611f55565b505050565b60008073ffffffffffffffffffffffffffffffffffffffff166002600084815260200190815260200160002060009054906101000a900473ffffffffffffffffffffffffffffffffffffffff1673ffffffffffffffffffffffffffffffffffffffff1614159050919050565b505050565b505050565b6000611c0f8473ffffffffffffffffffffffffffffffffffffffff16611f32565b15611d78578373ffffffffffffffffffffffffffffffffffffffff1663150b7a02611c386111bd565b8786866040518563ffffffff1660e01b8152600401611c5a9493929190612730565b602060405180830381600087803b158015611c7457600080fd5b505af1925050508015611ca557506040513d601f19601f82011682018060405250810190611ca29190612301565b60015b611d28573d8060008114611cd5576040519150601f19603f3d011682016040523d82523d6000602084013e611cda565b606091505b50600081511415611d20576040517f08c379a0000000000000000000000000000000000000000000000000000000008152600401611d17906127b9565b60405180910390fd5b805181602001fd5b63150b7a0260e01b7bffffffffffffffffffffffffffffffffffffffffffffffffffffffff1916817bffffffffffffffffffffffffffffffffffffffffffffffffffffffff191614915050611d7d565b600190505b949350505050565b60606000821415611dcd576040518060400160405280600181526020017f30000000000000000000000000000000000000000000000000000000000000008152509050611f2d565b600082905060005b60008214611dff578080611de890612cf6565b915050600a82611df89190612b6b565b9150611dd5565b60008167ffffffffffffffff811115611e41577f4e487b7100000000000000000000000000000000000000000000000000000000600052604160045260246000fd5b6040519080825280601f01601f191660200182016040528015611e735781602001600182028036833780820191505090505b5090505b60008514611f2657600182611e8c9190612b9c565b9150600a85611e9b9190612d3f565b6030611ea79190612ade565b60f81b818381518110611ee3577f4e487b7100000000000000000000000000000000000000000000000000000000600052603260045260246000fd5b60200101907effffffffffffffffffffffffffffffffffffffffffffffffffffffffffffff1916908160001a905350600a85611f1f9190612b6b565b9450611e77565b8093505050505b919050565b6000808273ffffffffffffffffffffffffffffffffffffffff163b119050919050565b828054611f6190612c93565b90600052602060002090601f016020900481019282611f835760008555611fca565b82601f10611f9c57805160ff1916838001178555611fca565b82800160010185558215611fca579182015b82811115611fc9578251825591602001919060010190611fae565b5b509050611fd79190611fdb565b5090565b5b80821115611ff4576000816000905550600101611fdc565b5090565b600061200b61200684612a39565b612a14565b90508281526020810184848401111561202357600080fd5b61202e848285612c51565b509392505050565b600061204961204484612a6a565b612a14565b90508281526020810184848401111561206157600080fd5b61206c848285612c51565b509392505050565b60008135905061208381613275565b92915050565b6000813590506120988161328c565b92915050565b6000813590506120ad816132a3565b92915050565b6000815190506120c2816132a3565b92915050565b600082601f8301126120d957600080fd5b81356120e9848260208601611ff8565b91505092915050565b600082601f83011261210357600080fd5b8135612113848260208601612036565b91505092915050565b60008135905061212b816132ba565b92915050565b60006020828403121561214357600080fd5b600061215184828501612074565b91505092915050565b6000806040838503121561216d57600080fd5b600061217b85828601612074565b925050602061218c85828601612074565b9150509250929050565b6000806000606084860312156121ab57600080fd5b60006121b986828701612074565b93505060206121ca86828701612074565b92505060406121db8682870161211c565b9150509250925092565b600080600080608085870312156121fb57600080fd5b600061220987828801612074565b945050602061221a87828801612074565b935050604061222b8782880161211c565b925050606085013567ffffffffffffffff81111561224857600080fd5b612254878288016120c8565b91505092959194509250565b6000806040838503121561227357600080fd5b600061228185828601612074565b925050602061229285828601612089565b9150509250929050565b600080604083850312156122af57600080fd5b60006122bd85828601612074565b92505060206122ce8582860161211c565b9150509250929050565b6000602082840312156122ea57600080fd5b60006122f88482850161209e565b91505092915050565b60006020828403121561231357600080fd5b6000612321848285016120b3565b91505092915050565b60006020828403121561233c57600080fd5b600082013567ffffffffffffffff81111561235657600080fd5b612362848285016120f2565b91505092915050565b60006020828403121561237d57600080fd5b600061238b8482850161211c565b91505092915050565b61239d81612bd0565b82525050565b6123ac81612be2565b82525050565b60006123bd82612a9b565b6123c78185612ab1565b93506123d7818560208601612c60565b6123e081612e2c565b840191505092915050565b60006123f682612aa6565b6124008185612ac2565b9350612410818560208601612c60565b61241981612e2c565b840191505092915050565b600061242f82612aa6565b6124398185612ad3565b9350612449818560208601612c60565b80840191505092915050565b6000612462603283612ac2565b915061246d82612e3d565b604082019050919050565b6000612485602683612ac2565b915061249082612e8c565b604082019050919050565b60006124a8602583612ac2565b91506124b382612edb565b604082019050919050565b60006124cb601c83612ac2565b91506124d682612f2a565b602082019050919050565b60006124ee602483612ac2565b91506124f982612f53565b604082019050919050565b6000612511601983612ac2565b915061251c82612fa2565b602082019050919050565b6000612534602083612ac2565b915061253f82612fcb565b602082019050919050565b6000612557602983612ac2565b915061256282612ff4565b604082019050919050565b600061257a602e83612ac2565b915061258582613043565b604082019050919050565b600061259d601783612ac2565b91506125a882613092565b602082019050919050565b60006125c0603e83612ac2565b91506125cb826130bb565b604082019050919050565b60006125e3602083612ac2565b91506125ee8261310a565b602082019050919050565b6000612606602083612ac2565b915061261182613133565b602082019050919050565b6000612629601c83612ac2565b91506126348261315c565b602082019050919050565b600061264c601883612ac2565b915061265782613185565b602082019050919050565b600061266f602183612ac2565b915061267a826131ae565b604082019050919050565b6000612692601f83612ac2565b915061269d826131fd565b602082019050919050565b60006126b5602e83612ac2565b91506126c082613226565b604082019050919050565b6126d481612c3a565b82525050565b60006126e68284612424565b915081905092915050565b60006126fd8285612424565b91506127098284612424565b91508190509392505050565b600060208201905061272a6000830184612394565b92915050565b60006080820190506127456000830187612394565b6127526020830186612394565b61275f60408301856126cb565b818103606083015261277181846123b2565b905095945050505050565b600060208201905061279160008301846123a3565b92915050565b600060208201905081810360008301526127b181846123eb565b905092915050565b600060208201905081810360008301526127d281612455565b9050919050565b600060208201905081810360008301526127f281612478565b9050919050565b600060208201905081810360008301526128128161249b565b9050919050565b60006020820190508181036000830152612832816124be565b9050919050565b60006020820190508181036000830152612852816124e1565b9050919050565b6000602082019050818103600083015261287281612504565b9050919050565b6000602082019050818103600083015261289281612527565b9050919050565b600060208201905081810360008301526128b28161254a565b9050919050565b600060208201905081810360008301526128d28161256d565b9050919050565b600060208201905081810360008301526128f281612590565b9050919050565b60006020820190508181036000830152612912816125b3565b9050919050565b60006020820190508181036000830152612932816125d6565b9050919050565b60006020820190508181036000830152612952816125f9565b9050919050565b600060208201905081810360008301526129728161261c565b9050919050565b600060208201905081810360008301526129928161263f565b9050919050565b600060208201905081810360008301526129b281612662565b9050919050565b600060208201905081810360008301526129d281612685565b9050919050565b600060208201905081810360008301526129f2816126a8565b9050919050565b6000602082019050612a0e60008301846126cb565b92915050565b6000612a1e612a2f565b9050612a2a8282612cc5565b919050565b6000604051905090565b600067ffffffffffffffff821115612a5457612a53612dfd565b5b612a5d82612e2c565b9050602081019050919050565b600067ffffffffffffffff821115612a8557612a84612dfd565b5b612a8e82612e2c565b9050602081019050919050565b600081519050919050565b600081519050919050565b600082825260208201905092915050565b600082825260208201905092915050565b600081905092915050565b6000612ae982612c3a565b9150612af483612c3a565b9250827fffffffffffffffffffffffffffffffffffffffffffffffffffffffffffffffff03821115612b2957612b28612d70565b5b828201905092915050565b6000612b3f82612c44565b9150612b4a83612c44565b92508260ff03821115612b6057612b5f612d70565b5b828201905092915050565b6000612b7682612c3a565b9150612b8183612c3a565b925082612b9157612b90612d9f565b5b828204905092915050565b6000612ba782612c3a565b9150612bb283612c3a565b925082821015612bc557612bc4612d70565b5b828203905092915050565b6000612bdb82612c1a565b9050919050565b60008115159050919050565b60007fffffffff0000000000000000000000000000000000000000000000000000000082169050919050565b600073ffffffffffffffffffffffffffffffffffffffff82169050919050565b6000819050919050565b600060ff82169050919050565b82818337600083830152505050565b60005b83811015612c7e578082015181840152602081019050612c63565b83811115612c8d576000848401525b50505050565b60006002820490506001821680612cab57607f821691505b60208210811415612cbf57612cbe612dce565b5b50919050565b612cce82612e2c565b810181811067ffffffffffffffff82111715612ced57612cec612dfd565b5b80604052505050565b6000612d0182612c3a565b91507fffffffffffffffffffffffffffffffffffffffffffffffffffffffffffffffff821415612d3457612d33612d70565b5b600182019050919050565b6000612d4a82612c3a565b9150612d5583612c3a565b925082612d6557612d64612d9f565b5b828206905092915050565b7f4e487b7100000000000000000000000000000000000000000000000000000000600052601160045260246000fd5b7f4e487b7100000000000000000000000000000000000000000000000000000000600052601260045260246000fd5b7f4e487b7100000000000000000000000000000000000000000000000000000000600052602260045260246000fd5b7f4e487b7100000000000000000000000000000000000000000000000000000000600052604160045260246000fd5b6000601f19601f8301169050919050565b7f4552433732313a207472616e7366657220746f206e6f6e20455243373231526560008201527f63656976657220696d706c656d656e7465720000000000000000000000000000602082015250565b7f4f776e61626c653a206e6577206f776e657220697320746865207a65726f206160008201527f6464726573730000000000000000000000000000000000000000000000000000602082015250565b7f4552433732313a207472616e736665722066726f6d20696e636f72726563742060008201527f6f776e6572000000000000000000000000000000000000000000000000000000602082015250565b7f4552433732313a20746f6b656e20616c7265616479206d696e74656400000000600082015250565b7f4552433732313a207472616e7366657220746f20746865207a65726f2061646460008201527f7265737300000000000000000000000000000000000000000000000000000000602082015250565b7f4552433732313a20617070726f766520746f2063616c6c657200000000000000600082015250565b7f54686973204e46542068617320616c7265616479206265656e206d696e746564600082015250565b7f4552433732313a2061646472657373207a65726f206973206e6f74206120766160008201527f6c6964206f776e65720000000000000000000000000000000000000000000000602082015250565b7f45524337323155524953746f726167653a2055524920736574206f66206e6f6e60008201527f6578697374656e7420746f6b656e000000000000000000000000000000000000602082015250565b7f4574686572207061696420697320696e636f7272656374000000000000000000600082015250565b7f4552433732313a20617070726f76652063616c6c6572206973206e6f7420746f60008201527f6b656e206f776e6572206e6f7220617070726f76656420666f7220616c6c0000602082015250565b7f4552433732313a206d696e7420746f20746865207a65726f2061646472657373600082015250565b7f4f776e61626c653a2063616c6c6572206973206e6f7420746865206f776e6572600082015250565b7f596f752068617665206578636565646564204d617820537570706c7900000000600082015250565b7f4552433732313a20696e76616c696420746f6b656e2049440000000000000000600082015250565b7f4552433732313a20617070726f76616c20746f2063757272656e74206f776e6560008201527f7200000000000000000000000000000000000000000000000000000000000000602082015250565b7f596f752068617665206578636565646564206d696e74696e67206c696d697400600082015250565b7f4552433732313a2063616c6c6572206973206e6f7420746f6b656e206f776e6560008201527f72206e6f7220617070726f766564000000000000000000000000000000000000602082015250565b61327e81612bd0565b811461328957600080fd5b50565b61329581612be2565b81146132a057600080fd5b50565b6132ac81612bee565b81146132b757600080fd5b50565b6132c381612c3a565b81146132ce57600080fd5b5056fea26469706673582212204e86611821ea02666c78cccce20c421581b0686037442f2b765af56bb441312d64736f6c63430008020033",
    "linkReferences": {},
    "deployedLinkReferences": {}
}